{
  "_format": "hh3-artifact-1",
  "contractName": "DAO",
  "sourceName": "contracts/DAO.sol",
  "abi": [
    {
      "inputs": [
        {
          "internalType": "string",
          "name": "_name",
          "type": "string"
        },
        {
          "internalType": "address",
          "name": "_nftContract",
          "type": "address"
        },
        {
          "internalType": "uint256",
          "name": "_minProposalCreationTokens",
          "type": "uint256"
        },
        {
          "internalType": "uint256",
          "name": "_minVotesToApprove",
          "type": "uint256"
        },
        {
          "internalType": "uint256",
          "name": "_minTokensToApprove",
          "type": "uint256"
        }
      ],
      "stateMutability": "nonpayable",
      "type": "constructor"
    },
    {
      "inputs": [
        {
          "internalType": "address",
          "name": "owner",
          "type": "address"
        }
      ],
      "name": "OwnableInvalidOwner",
      "type": "error"
    },
    {
      "inputs": [
        {
          "internalType": "address",
          "name": "account",
          "type": "address"
        }
      ],
      "name": "OwnableUnauthorizedAccount",
      "type": "error"
    },
    {
      "anonymous": false,
      "inputs": [
        {
          "indexed": true,
          "internalType": "uint256",
          "name": "oldValue",
          "type": "uint256"
        },
        {
          "indexed": true,
          "internalType": "uint256",
          "name": "newValue",
          "type": "uint256"
        }
      ],
      "name": "MinProposalVotesUpdated",
      "type": "event"
    },
    {
      "anonymous": false,
      "inputs": [
        {
          "indexed": true,
          "internalType": "uint256",
          "name": "oldValue",
          "type": "uint256"
        },
        {
          "indexed": true,
          "internalType": "uint256",
          "name": "newValue",
          "type": "uint256"
        }
      ],
      "name": "MinTokensToApproveUpdated",
      "type": "event"
    },
    {
      "anonymous": false,
      "inputs": [
        {
          "indexed": true,
          "internalType": "uint256",
          "name": "oldValue",
          "type": "uint256"
        },
        {
          "indexed": true,
          "internalType": "uint256",
          "name": "newValue",
          "type": "uint256"
        }
      ],
      "name": "MinVotesToApproveUpdated",
      "type": "event"
    },
    {
      "anonymous": false,
      "inputs": [
        {
          "indexed": true,
          "internalType": "address",
          "name": "oldContract",
          "type": "address"
        },
        {
          "indexed": true,
          "internalType": "address",
          "name": "newContract",
          "type": "address"
        }
      ],
      "name": "NFTContractUpdated",
      "type": "event"
    },
    {
      "anonymous": false,
      "inputs": [
        {
          "indexed": true,
          "internalType": "address",
          "name": "previousOwner",
          "type": "address"
        },
        {
          "indexed": true,
          "internalType": "address",
          "name": "newOwner",
          "type": "address"
        }
      ],
      "name": "OwnershipTransferred",
      "type": "event"
    },
    {
      "anonymous": false,
      "inputs": [
        {
          "indexed": true,
          "internalType": "uint256",
          "name": "proposalId",
          "type": "uint256"
        }
      ],
      "name": "ProposalCancelled",
      "type": "event"
    },
    {
      "anonymous": false,
      "inputs": [
        {
          "indexed": true,
          "internalType": "uint256",
          "name": "proposalId",
          "type": "uint256"
        },
        {
          "indexed": true,
          "internalType": "address",
          "name": "proposer",
          "type": "address"
        },
        {
          "indexed": false,
          "internalType": "string",
          "name": "description",
          "type": "string"
        },
        {
          "indexed": false,
          "internalType": "uint256",
          "name": "startTime",
          "type": "uint256"
        },
        {
          "indexed": false,
          "internalType": "uint256",
          "name": "endTime",
          "type": "uint256"
        }
      ],
      "name": "ProposalCreated",
      "type": "event"
    },
    {
      "anonymous": false,
      "inputs": [
        {
          "indexed": true,
          "internalType": "uint256",
          "name": "proposalId",
          "type": "uint256"
        },
        {
          "indexed": true,
          "internalType": "address",
          "name": "voter",
          "type": "address"
        },
        {
          "indexed": false,
          "internalType": "bool",
          "name": "support",
          "type": "bool"
        },
        {
          "indexed": false,
          "internalType": "uint256",
          "name": "votes",
          "type": "uint256"
        }
      ],
      "name": "VoteCast",
      "type": "event"
    },
    {
      "inputs": [],
      "name": "MIN_PROPOSAL_CREATION_TOKENS",
      "outputs": [
        {
          "internalType": "uint256",
          "name": "",
          "type": "uint256"
        }
      ],
      "stateMutability": "view",
      "type": "function"
    },
    {
      "inputs": [],
      "name": "MIN_TOKENS_TO_APPROVE",
      "outputs": [
        {
          "internalType": "uint256",
          "name": "",
          "type": "uint256"
        }
      ],
      "stateMutability": "view",
      "type": "function"
    },
    {
      "inputs": [],
      "name": "MIN_VOTES_TO_APPROVE",
      "outputs": [
        {
          "internalType": "uint256",
          "name": "",
          "type": "uint256"
        }
      ],
      "stateMutability": "view",
      "type": "function"
    },
    {
      "inputs": [
        {
          "internalType": "uint256",
          "name": "proposalId",
          "type": "uint256"
        }
      ],
      "name": "cancelProposal",
      "outputs": [],
      "stateMutability": "nonpayable",
      "type": "function"
    },
    {
      "inputs": [
        {
          "internalType": "string",
          "name": "description",
          "type": "string"
        },
        {
          "internalType": "string",
          "name": "link",
          "type": "string"
        },
        {
          "internalType": "uint256",
          "name": "startTime",
          "type": "uint256"
        },
        {
          "internalType": "uint256",
          "name": "endTime",
          "type": "uint256"
        }
      ],
      "name": "createProposal",
      "outputs": [],
      "stateMutability": "nonpayable",
      "type": "function"
    },
    {
      "inputs": [
        {
          "internalType": "uint256",
          "name": "proposalId",
          "type": "uint256"
        }
      ],
      "name": "getProposal",
      "outputs": [
        {
          "components": [
            {
              "internalType": "uint256",
              "name": "id",
              "type": "uint256"
            },
            {
              "internalType": "address",
              "name": "proposer",
              "type": "address"
            },
            {
              "internalType": "string",
              "name": "description",
              "type": "string"
            },
            {
              "internalType": "string",
              "name": "link",
              "type": "string"
            },
            {
              "internalType": "uint256",
              "name": "votesFor",
              "type": "uint256"
            },
            {
              "internalType": "uint256",
              "name": "votesAgainst",
              "type": "uint256"
            },
            {
              "internalType": "uint256",
              "name": "startTime",
              "type": "uint256"
            },
            {
              "internalType": "uint256",
              "name": "endTime",
              "type": "uint256"
            },
            {
              "internalType": "bool",
              "name": "cancelled",
              "type": "bool"
            }
          ],
          "internalType": "struct DAO.Proposal",
          "name": "",
          "type": "tuple"
        }
      ],
      "stateMutability": "view",
      "type": "function"
    },
    {
      "inputs": [
        {
          "internalType": "uint256",
          "name": "proposalId",
          "type": "uint256"
        }
      ],
      "name": "getProposalStatus",
      "outputs": [
        {
          "internalType": "string",
          "name": "",
          "type": "string"
        }
      ],
      "stateMutability": "view",
      "type": "function"
    },
    {
      "inputs": [
        {
          "internalType": "uint256",
          "name": "proposalId",
          "type": "uint256"
        }
      ],
      "name": "getProposalTotalVotingPower",
      "outputs": [
        {
          "internalType": "uint256",
          "name": "",
          "type": "uint256"
        }
      ],
      "stateMutability": "view",
      "type": "function"
    },
    {
      "inputs": [],
      "name": "getTotalProposals",
      "outputs": [
        {
          "internalType": "uint256",
          "name": "",
          "type": "uint256"
        }
      ],
      "stateMutability": "view",
      "type": "function"
    },
    {
      "inputs": [
        {
          "internalType": "uint256",
          "name": "proposalId",
          "type": "uint256"
        }
      ],
      "name": "getUniqueVotersCount",
      "outputs": [
        {
          "internalType": "uint256",
          "name": "",
          "type": "uint256"
        }
      ],
      "stateMutability": "view",
      "type": "function"
    },
    {
      "inputs": [
        {
          "internalType": "address",
          "name": "voter",
          "type": "address"
        }
      ],
      "name": "getVotingPower",
      "outputs": [
        {
          "internalType": "uint256",
          "name": "",
          "type": "uint256"
        }
      ],
      "stateMutability": "view",
      "type": "function"
    },
    {
      "inputs": [
        {
          "internalType": "uint256",
          "name": "",
          "type": "uint256"
        },
        {
          "internalType": "address",
          "name": "",
          "type": "address"
        }
      ],
      "name": "hasVoted",
      "outputs": [
        {
          "internalType": "bool",
          "name": "",
          "type": "bool"
        }
      ],
      "stateMutability": "view",
      "type": "function"
    },
    {
      "inputs": [
        {
          "internalType": "address",
          "name": "",
          "type": "address"
        }
      ],
      "name": "lastProposalTime",
      "outputs": [
        {
          "internalType": "uint256",
          "name": "",
          "type": "uint256"
        }
      ],
      "stateMutability": "view",
      "type": "function"
    },
    {
      "inputs": [],
      "name": "name",
      "outputs": [
        {
          "internalType": "string",
          "name": "",
          "type": "string"
        }
      ],
      "stateMutability": "view",
      "type": "function"
    },
    {
      "inputs": [],
      "name": "nftContract",
      "outputs": [
        {
          "internalType": "contract IERC721",
          "name": "",
          "type": "address"
        }
      ],
      "stateMutability": "view",
      "type": "function"
    },
    {
      "inputs": [],
      "name": "owner",
      "outputs": [
        {
          "internalType": "address",
          "name": "",
          "type": "address"
        }
      ],
      "stateMutability": "view",
      "type": "function"
    },
    {
      "inputs": [],
      "name": "proposalCount",
      "outputs": [
        {
          "internalType": "uint256",
          "name": "",
          "type": "uint256"
        }
      ],
      "stateMutability": "view",
      "type": "function"
    },
    {
      "inputs": [
        {
          "internalType": "uint256",
          "name": "",
          "type": "uint256"
        }
      ],
      "name": "proposalTotalVotingPowerSum",
      "outputs": [
        {
          "internalType": "uint256",
          "name": "",
          "type": "uint256"
        }
      ],
      "stateMutability": "view",
      "type": "function"
    },
    {
      "inputs": [
        {
          "internalType": "uint256",
          "name": "",
          "type": "uint256"
        }
      ],
      "name": "proposalUniqueVotersCount",
      "outputs": [
        {
          "internalType": "uint256",
          "name": "",
          "type": "uint256"
        }
      ],
      "stateMutability": "view",
      "type": "function"
    },
    {
      "inputs": [
        {
          "internalType": "uint256",
          "name": "",
          "type": "uint256"
        }
      ],
      "name": "proposals",
      "outputs": [
        {
          "internalType": "uint256",
          "name": "id",
          "type": "uint256"
        },
        {
          "internalType": "address",
          "name": "proposer",
          "type": "address"
        },
        {
          "internalType": "string",
          "name": "description",
          "type": "string"
        },
        {
          "internalType": "string",
          "name": "link",
          "type": "string"
        },
        {
          "internalType": "uint256",
          "name": "votesFor",
          "type": "uint256"
        },
        {
          "internalType": "uint256",
          "name": "votesAgainst",
          "type": "uint256"
        },
        {
          "internalType": "uint256",
          "name": "startTime",
          "type": "uint256"
        },
        {
          "internalType": "uint256",
          "name": "endTime",
          "type": "uint256"
        },
        {
          "internalType": "bool",
          "name": "cancelled",
          "type": "bool"
        }
      ],
      "stateMutability": "view",
      "type": "function"
    },
    {
      "inputs": [],
      "name": "renounceOwnership",
      "outputs": [],
      "stateMutability": "nonpayable",
      "type": "function"
    },
    {
      "inputs": [
        {
          "internalType": "address",
          "name": "newOwner",
          "type": "address"
        }
      ],
      "name": "transferOwnership",
      "outputs": [],
      "stateMutability": "nonpayable",
      "type": "function"
    },
    {
      "inputs": [
        {
          "internalType": "uint256",
          "name": "_newMinProposalVotes",
          "type": "uint256"
        }
      ],
      "name": "updateCreationMinProposalTokens",
      "outputs": [],
      "stateMutability": "nonpayable",
      "type": "function"
    },
    {
      "inputs": [
        {
          "internalType": "uint256",
          "name": "_newMinTokensToApprove",
          "type": "uint256"
        }
      ],
      "name": "updateMinTokensToApprove",
      "outputs": [],
      "stateMutability": "nonpayable",
      "type": "function"
    },
    {
      "inputs": [
        {
          "internalType": "uint256",
          "name": "_newMinVotesToApprove",
          "type": "uint256"
        }
      ],
      "name": "updateMinVotesToApprove",
      "outputs": [],
      "stateMutability": "nonpayable",
      "type": "function"
    },
    {
      "inputs": [
        {
          "internalType": "address",
          "name": "_newNftContract",
          "type": "address"
        }
      ],
      "name": "updateNFTContract",
      "outputs": [],
      "stateMutability": "nonpayable",
      "type": "function"
    },
    {
      "inputs": [
        {
          "internalType": "uint256",
          "name": "proposalId",
          "type": "uint256"
        },
        {
          "internalType": "bool",
          "name": "support",
          "type": "bool"
        }
      ],
      "name": "vote",
      "outputs": [],
      "stateMutability": "nonpayable",
      "type": "function"
    }
  ],
  "bytecode": "0x608060405234801561000f575f5ffd5b5060405161388a38038061388a833981810160405281019061003191906103bc565b335f73ffffffffffffffffffffffffffffffffffffffff168173ffffffffffffffffffffffffffffffffffffffff16036100a2575f6040517f1e4fbdf7000000000000000000000000000000000000000000000000000000008152600401610099919061045e565b60405180910390fd5b6100b18161012160201b60201c565b5084600190816100c1919061067e565b508360025f6101000a81548173ffffffffffffffffffffffffffffffffffffffff021916908373ffffffffffffffffffffffffffffffffffffffff160217905550826004819055508160058190555080600681905550505050505061074d565b5f5f5f9054906101000a900473ffffffffffffffffffffffffffffffffffffffff169050815f5f6101000a81548173ffffffffffffffffffffffffffffffffffffffff021916908373ffffffffffffffffffffffffffffffffffffffff1602179055508173ffffffffffffffffffffffffffffffffffffffff168173ffffffffffffffffffffffffffffffffffffffff167f8be0079c531659141344cd1fd0a4f28419497f9722a3daafe3b4186f6b6457e060405160405180910390a35050565b5f604051905090565b5f5ffd5b5f5ffd5b5f5ffd5b5f5ffd5b5f601f19601f8301169050919050565b7f4e487b71000000000000000000000000000000000000000000000000000000005f52604160045260245ffd5b610241826101fb565b810181811067ffffffffffffffff821117156102605761025f61020b565b5b80604052505050565b5f6102726101e2565b905061027e8282610238565b919050565b5f67ffffffffffffffff82111561029d5761029c61020b565b5b6102a6826101fb565b9050602081019050919050565b8281835e5f83830152505050565b5f6102d36102ce84610283565b610269565b9050828152602081018484840111156102ef576102ee6101f7565b5b6102fa8482856102b3565b509392505050565b5f82601f830112610316576103156101f3565b5b81516103268482602086016102c1565b91505092915050565b5f73ffffffffffffffffffffffffffffffffffffffff82169050919050565b5f6103588261032f565b9050919050565b6103688161034e565b8114610372575f5ffd5b50565b5f815190506103838161035f565b92915050565b5f819050919050565b61039b81610389565b81146103a5575f5ffd5b50565b5f815190506103b681610392565b92915050565b5f5f5f5f5f60a086880312156103d5576103d46101eb565b5b5f86015167ffffffffffffffff8111156103f2576103f16101ef565b5b6103fe88828901610302565b955050602061040f88828901610375565b9450506040610420888289016103a8565b9350506060610431888289016103a8565b9250506080610442888289016103a8565b9150509295509295909350565b6104588161034e565b82525050565b5f6020820190506104715f83018461044f565b92915050565b5f81519050919050565b7f4e487b71000000000000000000000000000000000000000000000000000000005f52602260045260245ffd5b5f60028204905060018216806104c557607f821691505b6020821081036104d8576104d7610481565b5b50919050565b5f819050815f5260205f209050919050565b5f6020601f8301049050919050565b5f82821b905092915050565b5f6008830261053a7fffffffffffffffffffffffffffffffffffffffffffffffffffffffffffffffff826104ff565b61054486836104ff565b95508019841693508086168417925050509392505050565b5f819050919050565b5f61057f61057a61057584610389565b61055c565b610389565b9050919050565b5f819050919050565b61059883610565565b6105ac6105a482610586565b84845461050b565b825550505050565b5f5f905090565b6105c36105b4565b6105ce81848461058f565b505050565b5b818110156105f1576105e65f826105bb565b6001810190506105d4565b5050565b601f82111561063657610607816104de565b610610846104f0565b8101602085101561061f578190505b61063361062b856104f0565b8301826105d3565b50505b505050565b5f82821c905092915050565b5f6106565f198460080261063b565b1980831691505092915050565b5f61066e8383610647565b9150826002028217905092915050565b61068782610477565b67ffffffffffffffff8111156106a05761069f61020b565b5b6106aa82546104ae565b6106b58282856105f5565b5f60209050601f8311600181146106e6575f84156106d4578287015190505b6106de8582610663565b865550610745565b601f1984166106f4866104de565b5f5b8281101561071b578489015182556001820191506020850194506020810190506106f6565b868310156107385784890151610734601f891682610647565b8355505b6001600288020188555050505b505050505050565b6131308061075a5f395ff3fe608060405234801561000f575f5ffd5b50600436106101a7575f3560e01c80635b7ad578116100f7578063bb4d443611610095578063d56d229d1161006f578063d56d229d146104f9578063da35c66414610517578063e0a8f6f514610535578063f2fde38b14610551576101a7565b8063bb4d44361461047d578063c7f758a8146104ad578063c9d27afe146104dd576101a7565b806378627f2b116100d157806378627f2b146103f55780638c10f31e146104115780638da5cb5b1461042f57806397c77dc11461044d576101a7565b80635b7ad5781461039f5780636b5e1766146103cf578063715018a6146103eb576101a7565b806332bb8f6a11610164578063430266611161013e578063430266611461030557806343859632146103235780634413ebdc14610353578063531a341714610383576101a7565b806332bb8f6a1461029b5780633870e008146102b7578063401853b7146102d5576101a7565b8063013cf08b146101ab57806306fdde03146101e35780631a5007dd1461020157806325b1cc7f1461021f5780632b3aa3c31461024f57806331641d761461027f575b5f5ffd5b6101c560048036038101906101c09190611f95565b61056d565b6040516101da99989796959493929190612098565b60405180910390f35b6101eb6106ee565b6040516101f89190612131565b60405180910390f35b61020961077a565b6040516102169190612151565b60405180910390f35b61023960048036038101906102349190611f95565b610783565b6040516102469190612151565b60405180910390f35b61026960048036038101906102649190611f95565b610798565b6040516102769190612151565b60405180910390f35b61029960048036038101906102949190611f95565b610807565b005b6102b560048036038101906102b09190611f95565b610890565b005b6102bf610919565b6040516102cc9190612151565b60405180910390f35b6102ef60048036038101906102ea9190611f95565b61091f565b6040516102fc9190612131565b60405180910390f35b61030d610cf0565b60405161031a9190612151565b60405180910390f35b61033d60048036038101906103389190612194565b610cf6565b60405161034a91906121d2565b60405180910390f35b61036d60048036038101906103689190611f95565b610d20565b60405161037a9190612151565b60405180910390f35b61039d60048036038101906103989190611f95565b610d8f565b005b6103b960048036038101906103b491906121eb565b610e18565b6040516103c69190612151565b60405180910390f35b6103e960048036038101906103e49190612277565b610e2d565b005b6103f361128f565b005b61040f600480360381019061040a91906121eb565b6112a2565b005b61041961146a565b6040516104269190612151565b60405180910390f35b610437611470565b604051610444919061231a565b60405180910390f35b61046760048036038101906104629190611f95565b611497565b6040516104749190612151565b60405180910390f35b610497600480360381019061049291906121eb565b6114ac565b6040516104a49190612151565b60405180910390f35b6104c760048036038101906104c29190611f95565b61154d565b6040516104d49190612471565b60405180910390f35b6104f760048036038101906104f291906124bb565b611739565b005b610501611b30565b60405161050e9190612554565b60405180910390f35b61051f611b55565b60405161052c9190612151565b60405180910390f35b61054f600480360381019061054a9190611f95565b611b5b565b005b61056b600480360381019061056691906121eb565b611d2a565b005b6007602052805f5260405f205f91509050805f015490806001015f9054906101000a900473ffffffffffffffffffffffffffffffffffffffff16908060020180546105b79061259a565b80601f01602080910402602001604051908101604052809291908181526020018280546105e39061259a565b801561062e5780601f106106055761010080835404028352916020019161062e565b820191905f5260205f20905b81548152906001019060200180831161061157829003601f168201915b5050505050908060030180546106439061259a565b80601f016020809104026020016040519081016040528092919081815260200182805461066f9061259a565b80156106ba5780601f10610691576101008083540402835291602001916106ba565b820191905f5260205f20905b81548152906001019060200180831161069d57829003601f168201915b505050505090806004015490806005015490806006015490806007015490806008015f9054906101000a900460ff16905089565b600180546106fb9061259a565b80601f01602080910402602001604051908101604052809291908181526020018280546107279061259a565b80156107725780601f1061074957610100808354040283529160200191610772565b820191905f5260205f20905b81548152906001019060200180831161075557829003601f168201915b505050505081565b5f600354905090565b600a602052805f5260405f205f915090505481565b5f8160075f8481526020019081526020015f205f0154146107ee576040517f08c379a00000000000000000000000000000000000000000000000000000000081526004016107e590612614565b60405180910390fd5b600a5f8381526020019081526020015f20549050919050565b61080f611dae565b5f8111610851576040517f08c379a00000000000000000000000000000000000000000000000000000000081526004016108489061267c565b60405180910390fd5b5f60045490508160048190555081817f6fb1a5514c5f9743d9ab0eacc727cb8780f08f25c5a0fc2c47fd4592269c012260405160405180910390a35050565b610898611dae565b5f81116108da576040517f08c379a00000000000000000000000000000000000000000000000000000000081526004016108d19061267c565b60405180910390fd5b5f60065490508160068190555081817f2cacdf9c62da02d9a39fa6c787a32030cb293e749164430c3380f46d819b17f560405160405180910390a35050565b60045481565b60605f60075f8481526020019081526020015f20604051806101200160405290815f8201548152602001600182015f9054906101000a900473ffffffffffffffffffffffffffffffffffffffff1673ffffffffffffffffffffffffffffffffffffffff1673ffffffffffffffffffffffffffffffffffffffff1681526020016002820180546109ad9061259a565b80601f01602080910402602001604051908101604052809291908181526020018280546109d99061259a565b8015610a245780601f106109fb57610100808354040283529160200191610a24565b820191905f5260205f20905b815481529060010190602001808311610a0757829003601f168201915b50505050508152602001600382018054610a3d9061259a565b80601f0160208091040260200160405190810160405280929190818152602001828054610a699061259a565b8015610ab45780601f10610a8b57610100808354040283529160200191610ab4565b820191905f5260205f20905b815481529060010190602001808311610a9757829003601f168201915b5050505050815260200160048201548152602001600582015481526020016006820154815260200160078201548152602001600882015f9054906101000a900460ff161515151581525050905082815f015114610b49576040518060400160405280600981526020017f4e6f206578697374650000000000000000000000000000000000000000000000815250915050610ceb565b80610100015115610b92576040518060400160405280600981526020017f43616e63656c6164610000000000000000000000000000000000000000000000815250915050610ceb565b8060c00151421015610bdc576040518060400160405280600981526020017f50656e6469656e74650000000000000000000000000000000000000000000000815250915050610ceb565b8060e001514211610c25576040518060400160405280600781526020017f566f74616e646f00000000000000000000000000000000000000000000000000815250915050610ceb565b8060a001518160800151118015610c4f575060055460095f8581526020019081526020015f205410155b8015610c6e5750600654600a5f8581526020019081526020015f205410155b15610cb1576040518060400160405280600881526020017f4170726f62616461000000000000000000000000000000000000000000000000815250915050610ceb565b6040518060400160405280600981526020017f52656368617a61646100000000000000000000000000000000000000000000008152509150505b919050565b60055481565b6008602052815f5260405f20602052805f5260405f205f915091509054906101000a900460ff1681565b5f8160075f8481526020019081526020015f205f015414610d76576040517f08c379a0000000000000000000000000000000000000000000000000000000008152600401610d6d90612614565b60405180910390fd5b60095f8381526020019081526020015f20549050919050565b610d97611dae565b5f8111610dd9576040517f08c379a0000000000000000000000000000000000000000000000000000000008152600401610dd09061267c565b60405180910390fd5b5f60055490508160058190555081817f8fc27e423b161ace933dc294e84b033182113d0fd0516bbf71276c45ae05fc7b60405160405180910390a35050565b600b602052805f5260405f205f915090505481565b5f60025f9054906101000a900473ffffffffffffffffffffffffffffffffffffffff1673ffffffffffffffffffffffffffffffffffffffff166370a08231336040518263ffffffff1660e01b8152600401610e88919061231a565b602060405180830381865afa158015610ea3573d5f5f3e3d5ffd5b505050506040513d601f19601f82011682018060405250810190610ec791906126ae565b9050600454811015610f0e576040517f08c379a0000000000000000000000000000000000000000000000000000000008152600401610f0590612749565b60405180910390fd5b62015180600b5f3373ffffffffffffffffffffffffffffffffffffffff1673ffffffffffffffffffffffffffffffffffffffff1681526020019081526020015f2054610f5a9190612794565b421015610f9c576040517f08c379a0000000000000000000000000000000000000000000000000000000008152600401610f9390612837565b60405180910390fd5b42831015610fdf576040517f08c379a0000000000000000000000000000000000000000000000000000000008152600401610fd69061289f565b60405180910390fd5b828211611021576040517f08c379a00000000000000000000000000000000000000000000000000000000081526004016110189061292d565b60405180910390fd5b5f60035f8154809291906110349061294b565b9190505590506040518061012001604052808281526020013373ffffffffffffffffffffffffffffffffffffffff16815260200189898080601f0160208091040260200160405190810160405280939291908181526020018383808284375f81840152601f19601f82011690508083019250505050505050815260200187878080601f0160208091040260200160405190810160405280939291908181526020018383808284375f81840152601f19601f8201169050808301925050505050505081526020015f81526020015f81526020018581526020018481526020015f151581525060075f8381526020019081526020015f205f820151815f01556020820151816001015f6101000a81548173ffffffffffffffffffffffffffffffffffffffff021916908373ffffffffffffffffffffffffffffffffffffffff160217905550604082015181600201908161118c9190612b56565b5060608201518160030190816111a29190612b56565b506080820151816004015560a0820151816005015560c0820151816006015560e08201518160070155610100820151816008015f6101000a81548160ff02191690831515021790555090505042600b5f3373ffffffffffffffffffffffffffffffffffffffff1673ffffffffffffffffffffffffffffffffffffffff1681526020019081526020015f20819055503373ffffffffffffffffffffffffffffffffffffffff16817f6c98a8c940418b35614f0cd02412d5c9606faff474cbb6cdd6640ba5d1a9f06b8a8a888860405161127d9493929190612c5f565b60405180910390a35050505050505050565b611297611dae565b6112a05f611e35565b565b6112aa611dae565b5f73ffffffffffffffffffffffffffffffffffffffff168173ffffffffffffffffffffffffffffffffffffffff1603611318576040517f08c379a000000000000000000000000000000000000000000000000000000000815260040161130f90612ce7565b60405180910390fd5b60025f9054906101000a900473ffffffffffffffffffffffffffffffffffffffff1673ffffffffffffffffffffffffffffffffffffffff168173ffffffffffffffffffffffffffffffffffffffff16036113a7576040517f08c379a000000000000000000000000000000000000000000000000000000000815260040161139e90612d4f565b60405180910390fd5b5f60025f9054906101000a900473ffffffffffffffffffffffffffffffffffffffff1690508160025f6101000a81548173ffffffffffffffffffffffffffffffffffffffff021916908373ffffffffffffffffffffffffffffffffffffffff1602179055508173ffffffffffffffffffffffffffffffffffffffff168173ffffffffffffffffffffffffffffffffffffffff167fab9636faa03b42a52a353eb86f070f1ac15b69f0bc419fba63d07b5d996edad760405160405180910390a35050565b60065481565b5f5f5f9054906101000a900473ffffffffffffffffffffffffffffffffffffffff16905090565b6009602052805f5260405f205f915090505481565b5f60025f9054906101000a900473ffffffffffffffffffffffffffffffffffffffff1673ffffffffffffffffffffffffffffffffffffffff166370a08231836040518263ffffffff1660e01b8152600401611507919061231a565b602060405180830381865afa158015611522573d5f5f3e3d5ffd5b505050506040513d601f19601f8201168201806040525081019061154691906126ae565b9050919050565b611555611efd565b60075f8381526020019081526020015f20604051806101200160405290815f8201548152602001600182015f9054906101000a900473ffffffffffffffffffffffffffffffffffffffff1673ffffffffffffffffffffffffffffffffffffffff1673ffffffffffffffffffffffffffffffffffffffff1681526020016002820180546115e09061259a565b80601f016020809104026020016040519081016040528092919081815260200182805461160c9061259a565b80156116575780601f1061162e57610100808354040283529160200191611657565b820191905f5260205f20905b81548152906001019060200180831161163a57829003601f168201915b505050505081526020016003820180546116709061259a565b80601f016020809104026020016040519081016040528092919081815260200182805461169c9061259a565b80156116e75780601f106116be576101008083540402835291602001916116e7565b820191905f5260205f20905b8154815290600101906020018083116116ca57829003601f168201915b5050505050815260200160048201548152602001600582015481526020016006820154815260200160078201548152602001600882015f9054906101000a900460ff1615151515815250509050919050565b5f60075f8481526020019081526020015f20905082815f015414611792576040517f08c379a000000000000000000000000000000000000000000000000000000000815260040161178990612614565b60405180910390fd5b80600601544210156117d9576040517f08c379a00000000000000000000000000000000000000000000000000000000081526004016117d090612db7565b60405180910390fd5b8060070154421115611820576040517f08c379a000000000000000000000000000000000000000000000000000000000815260040161181790612e1f565b60405180910390fd5b806008015f9054906101000a900460ff1615611871576040517f08c379a000000000000000000000000000000000000000000000000000000000815260040161186890612e87565b60405180910390fd5b60085f8481526020019081526020015f205f3373ffffffffffffffffffffffffffffffffffffffff1673ffffffffffffffffffffffffffffffffffffffff1681526020019081526020015f205f9054906101000a900460ff161561190a576040517f08c379a000000000000000000000000000000000000000000000000000000000815260040161190190612eef565b60405180910390fd5b5f60025f9054906101000a900473ffffffffffffffffffffffffffffffffffffffff1673ffffffffffffffffffffffffffffffffffffffff166370a08231336040518263ffffffff1660e01b8152600401611965919061231a565b602060405180830381865afa158015611980573d5f5f3e3d5ffd5b505050506040513d601f19601f820116820180604052508101906119a491906126ae565b90505f81116119e8576040517f08c379a00000000000000000000000000000000000000000000000000000000081526004016119df90612f7d565b60405180910390fd5b600160085f8681526020019081526020015f205f3373ffffffffffffffffffffffffffffffffffffffff1673ffffffffffffffffffffffffffffffffffffffff1681526020019081526020015f205f6101000a81548160ff02191690831515021790555060095f8581526020019081526020015f205f815480929190611a6d9061294b565b919050555080600a5f8681526020019081526020015f205f828254611a929190612794565b925050819055508215611abe5780826004015f828254611ab29190612794565b92505081905550611ad9565b80826005015f828254611ad19190612794565b925050819055505b3373ffffffffffffffffffffffffffffffffffffffff16847fcbdf6214089cba887ecbf35a0b6a734589959c9763342c756bb2a80ca2bc9f6e8584604051611b22929190612f9b565b60405180910390a350505050565b60025f9054906101000a900473ffffffffffffffffffffffffffffffffffffffff1681565b60035481565b5f60075f8381526020019081526020015f20905081815f015414611bb4576040517f08c379a0000000000000000000000000000000000000000000000000000000008152600401611bab90612614565b60405180910390fd5b806001015f9054906101000a900473ffffffffffffffffffffffffffffffffffffffff1673ffffffffffffffffffffffffffffffffffffffff163373ffffffffffffffffffffffffffffffffffffffff1614611c45576040517f08c379a0000000000000000000000000000000000000000000000000000000008152600401611c3c9061300c565b60405180910390fd5b806008015f9054906101000a900460ff1615611c96576040517f08c379a0000000000000000000000000000000000000000000000000000000008152600401611c8d90613074565b60405180910390fd5b8060070154421115611cdd576040517f08c379a0000000000000000000000000000000000000000000000000000000008152600401611cd4906130dc565b60405180910390fd5b6001816008015f6101000a81548160ff021916908315150217905550817f416e669c63d9a3a5e36ee7cc7e2104b8db28ccd286aa18966e98fa230c73b08c60405160405180910390a25050565b611d32611dae565b5f73ffffffffffffffffffffffffffffffffffffffff168173ffffffffffffffffffffffffffffffffffffffff1603611da2575f6040517f1e4fbdf7000000000000000000000000000000000000000000000000000000008152600401611d99919061231a565b60405180910390fd5b611dab81611e35565b50565b611db6611ef6565b73ffffffffffffffffffffffffffffffffffffffff16611dd4611470565b73ffffffffffffffffffffffffffffffffffffffff1614611e3357611df7611ef6565b6040517f118cdaa7000000000000000000000000000000000000000000000000000000008152600401611e2a919061231a565b60405180910390fd5b565b5f5f5f9054906101000a900473ffffffffffffffffffffffffffffffffffffffff169050815f5f6101000a81548173ffffffffffffffffffffffffffffffffffffffff021916908373ffffffffffffffffffffffffffffffffffffffff1602179055508173ffffffffffffffffffffffffffffffffffffffff168173ffffffffffffffffffffffffffffffffffffffff167f8be0079c531659141344cd1fd0a4f28419497f9722a3daafe3b4186f6b6457e060405160405180910390a35050565b5f33905090565b6040518061012001604052805f81526020015f73ffffffffffffffffffffffffffffffffffffffff16815260200160608152602001606081526020015f81526020015f81526020015f81526020015f81526020015f151581525090565b5f5ffd5b5f5ffd5b5f819050919050565b611f7481611f62565b8114611f7e575f5ffd5b50565b5f81359050611f8f81611f6b565b92915050565b5f60208284031215611faa57611fa9611f5a565b5b5f611fb784828501611f81565b91505092915050565b611fc981611f62565b82525050565b5f73ffffffffffffffffffffffffffffffffffffffff82169050919050565b5f611ff882611fcf565b9050919050565b61200881611fee565b82525050565b5f81519050919050565b5f82825260208201905092915050565b8281835e5f83830152505050565b5f601f19601f8301169050919050565b5f6120508261200e565b61205a8185612018565b935061206a818560208601612028565b61207381612036565b840191505092915050565b5f8115159050919050565b6120928161207e565b82525050565b5f610120820190506120ac5f83018c611fc0565b6120b9602083018b611fff565b81810360408301526120cb818a612046565b905081810360608301526120df8189612046565b90506120ee6080830188611fc0565b6120fb60a0830187611fc0565b61210860c0830186611fc0565b61211560e0830185611fc0565b612123610100830184612089565b9a9950505050505050505050565b5f6020820190508181035f8301526121498184612046565b905092915050565b5f6020820190506121645f830184611fc0565b92915050565b61217381611fee565b811461217d575f5ffd5b50565b5f8135905061218e8161216a565b92915050565b5f5f604083850312156121aa576121a9611f5a565b5b5f6121b785828601611f81565b92505060206121c885828601612180565b9150509250929050565b5f6020820190506121e55f830184612089565b92915050565b5f60208284031215612200576121ff611f5a565b5b5f61220d84828501612180565b91505092915050565b5f5ffd5b5f5ffd5b5f5ffd5b5f5f83601f84011261223757612236612216565b5b8235905067ffffffffffffffff8111156122545761225361221a565b5b6020830191508360018202830111156122705761226f61221e565b5b9250929050565b5f5f5f5f5f5f6080878903121561229157612290611f5a565b5b5f87013567ffffffffffffffff8111156122ae576122ad611f5e565b5b6122ba89828a01612222565b9650965050602087013567ffffffffffffffff8111156122dd576122dc611f5e565b5b6122e989828a01612222565b945094505060406122fc89828a01611f81565b925050606061230d89828a01611f81565b9150509295509295509295565b5f60208201905061232d5f830184611fff565b92915050565b61233c81611f62565b82525050565b61234b81611fee565b82525050565b5f82825260208201905092915050565b5f61236b8261200e565b6123758185612351565b9350612385818560208601612028565b61238e81612036565b840191505092915050565b6123a28161207e565b82525050565b5f61012083015f8301516123be5f860182612333565b5060208301516123d16020860182612342565b50604083015184820360408601526123e98282612361565b915050606083015184820360608601526124038282612361565b91505060808301516124186080860182612333565b5060a083015161242b60a0860182612333565b5060c083015161243e60c0860182612333565b5060e083015161245160e0860182612333565b50610100830151612466610100860182612399565b508091505092915050565b5f6020820190508181035f83015261248981846123a8565b905092915050565b61249a8161207e565b81146124a4575f5ffd5b50565b5f813590506124b581612491565b92915050565b5f5f604083850312156124d1576124d0611f5a565b5b5f6124de85828601611f81565b92505060206124ef858286016124a7565b9150509250929050565b5f819050919050565b5f61251c61251761251284611fcf565b6124f9565b611fcf565b9050919050565b5f61252d82612502565b9050919050565b5f61253e82612523565b9050919050565b61254e81612534565b82525050565b5f6020820190506125675f830184612545565b92915050565b7f4e487b71000000000000000000000000000000000000000000000000000000005f52602260045260245ffd5b5f60028204905060018216806125b157607f821691505b6020821081036125c4576125c361256d565b5b50919050565b7f50726f707565737461206e6f20657869737465000000000000000000000000005f82015250565b5f6125fe601383612018565b9150612609826125ca565b602082019050919050565b5f6020820190508181035f83015261262b816125f2565b9050919050565b7f56616c6f72206465626520736572206d61796f722061203000000000000000005f82015250565b5f612666601883612018565b915061267182612632565b602082019050919050565b5f6020820190508181035f8301526126938161265a565b9050919050565b5f815190506126a881611f6b565b92915050565b5f602082840312156126c3576126c2611f5a565b5b5f6126d08482850161269a565b91505092915050565b7f4e656365736974617320616c206d656e6f73203130204e4654732070617261205f8201527f63726561722070726f7075657374610000000000000000000000000000000000602082015250565b5f612733602f83612018565b915061273e826126d9565b604082019050919050565b5f6020820190508181035f83015261276081612727565b9050919050565b7f4e487b71000000000000000000000000000000000000000000000000000000005f52601160045260245ffd5b5f61279e82611f62565b91506127a983611f62565b92508282019050808211156127c1576127c0612767565b5b92915050565b7f536f6c6f2070756564657320637265617220756e612070726f707565737461205f8201527f6361646120323420686f72617300000000000000000000000000000000000000602082015250565b5f612821602d83612018565b915061282c826127c7565b604082019050919050565b5f6020820190508181035f83015261284e81612815565b9050919050565b7f737461727454696d6520646562652073657220656e20656c2066757475726f005f82015250565b5f612889601f83612018565b915061289482612855565b602082019050919050565b5f6020820190508181035f8301526128b68161287d565b9050919050565b7f656e6454696d65206465626520736572206d61796f72207175652073746172745f8201527f54696d6500000000000000000000000000000000000000000000000000000000602082015250565b5f612917602483612018565b9150612922826128bd565b604082019050919050565b5f6020820190508181035f8301526129448161290b565b9050919050565b5f61295582611f62565b91507fffffffffffffffffffffffffffffffffffffffffffffffffffffffffffffffff820361298757612986612767565b5b600182019050919050565b7f4e487b71000000000000000000000000000000000000000000000000000000005f52604160045260245ffd5b5f819050815f5260205f209050919050565b5f6020601f8301049050919050565b5f82821b905092915050565b5f60088302612a1b7fffffffffffffffffffffffffffffffffffffffffffffffffffffffffffffffff826129e0565b612a2586836129e0565b95508019841693508086168417925050509392505050565b5f612a57612a52612a4d84611f62565b6124f9565b611f62565b9050919050565b5f819050919050565b612a7083612a3d565b612a84612a7c82612a5e565b8484546129ec565b825550505050565b5f5f905090565b612a9b612a8c565b612aa6818484612a67565b505050565b5b81811015612ac957612abe5f82612a93565b600181019050612aac565b5050565b601f821115612b0e57612adf816129bf565b612ae8846129d1565b81016020851015612af7578190505b612b0b612b03856129d1565b830182612aab565b50505b505050565b5f82821c905092915050565b5f612b2e5f1984600802612b13565b1980831691505092915050565b5f612b468383612b1f565b9150826002028217905092915050565b612b5f8261200e565b67ffffffffffffffff811115612b7857612b77612992565b5b612b82825461259a565b612b8d828285612acd565b5f60209050601f831160018114612bbe575f8415612bac578287015190505b612bb68582612b3b565b865550612c1d565b601f198416612bcc866129bf565b5f5b82811015612bf357848901518255600182019150602085019450602081019050612bce565b86831015612c105784890151612c0c601f891682612b1f565b8355505b6001600288020188555050505b505050505050565b828183375f83830152505050565b5f612c3e8385612018565b9350612c4b838584612c25565b612c5483612036565b840190509392505050565b5f6060820190508181035f830152612c78818688612c33565b9050612c876020830185611fc0565b612c946040830184611fc0565b95945050505050565b7f446972656363696f6e20696e76616c69646100000000000000000000000000005f82015250565b5f612cd1601283612018565b9150612cdc82612c9d565b602082019050919050565b5f6020820190508181035f830152612cfe81612cc5565b9050919050565b7f4d69736d6120646972656363696f6e2061637475616c000000000000000000005f82015250565b5f612d39601683612018565b9150612d4482612d05565b602082019050919050565b5f6020820190508181035f830152612d6681612d2d565b9050919050565b7f566f746163696f6e206e6f20686120636f6d656e7a61646f00000000000000005f82015250565b5f612da1601883612018565b9150612dac82612d6d565b602082019050919050565b5f6020820190508181035f830152612dce81612d95565b9050919050565b7f566f746163696f6e206861207465726d696e61646f00000000000000000000005f82015250565b5f612e09601583612018565b9150612e1482612dd5565b602082019050919050565b5f6020820190508181035f830152612e3681612dfd565b9050919050565b7f50726f7075657374612063616e63656c616461000000000000000000000000005f82015250565b5f612e71601383612018565b9150612e7c82612e3d565b602082019050919050565b5f6020820190508181035f830152612e9e81612e65565b9050919050565b7f596120766f746173746520656e20657374612070726f707565737461000000005f82015250565b5f612ed9601c83612018565b9150612ee482612ea5565b602082019050919050565b5f6020820190508181035f830152612f0681612ecd565b9050919050565b7f4e656365736974617320616c206d656e6f732031204e4654207061726120766f5f8201527f7461720000000000000000000000000000000000000000000000000000000000602082015250565b5f612f67602383612018565b9150612f7282612f0d565b604082019050919050565b5f6020820190508181035f830152612f9481612f5b565b9050919050565b5f604082019050612fae5f830185612089565b612fbb6020830184611fc0565b9392505050565b7f536f6c6f20656c2070726f706f7365722070756564652063616e63656c6172005f82015250565b5f612ff6601f83612018565b915061300182612fc2565b602082019050919050565b5f6020820190508181035f83015261302381612fea565b9050919050565b7f50726f7075657374612079612063616e63656c616461000000000000000000005f82015250565b5f61305e601683612018565b91506130698261302a565b602082019050919050565b5f6020820190508181035f83015261308b81613052565b9050919050565b7f566f746163696f6e207961207465726d696e6f000000000000000000000000005f82015250565b5f6130c6601383612018565b91506130d182613092565b602082019050919050565b5f6020820190508181035f8301526130f3816130ba565b905091905056fea2646970667358221220112df04d840e36e017a485d4fc5dead758e35f2df852f5eee9211872d404131a64736f6c634300081c0033",
  "linkReferences": {},
  "deployedLinkReferences": {},
  "immutableReferences": {},
  "inputSourceName": "project/contracts/DAO.sol",
  "buildInfoId": "solc-0_8_28-f5235c295f013bc486c552ae9c33bc29de18cc8a"
}